:1000000010C02AC029C028C027C026C025C024C0CF
:1000100023C031C221C052C21FC01EC048C11CC073
:100020001BC011241FBECFE5D2E0DEBFCDBF10E064
:10003000A0E6B0E0EEEEF7E002C005900D92A0372A
:10004000B107D9F711E0A0E7B0E001C01D92A630DA
:10005000B107E1F7B2D2C9C3D3CFCF93DF93EC019D
:1000600080917000882319F4A0E0B0E03FC0F894BC
:10007000E82FF0E0ED53FF4F208181508093700016
:100080008AE0289FD0011124AF58BF4F1196DC930E
:10009000CE938091D6009091D700860F971F13962C
:1000A0009C938E93129715967C936E931497199642
:1000B0005C934E9318978091E20017968C93179754
:1000C00016961C921697992787FD9095FC0143E0A0
:1000D000EE0FFF1F4A95E1F7880F991FE80FF91FF0
:1000E000EF58FF4F26832093E2007894CD01DF91F3
:1000F000CF9108959C0180916E0087FF03C0E0E0DE
:10010000F0E018C0F894E82FFF27E7FDF095E050E5
:10011000FF4F9081815080936E00789485E0980223
:10012000F0011124EC51FF4F3183208373836283EC
:1001300081E08483CF0108950F931F93CF93DF93C2
:100140008091D6009091D70001969093D70080932C
:10015000D600109177000AE04AC01002E001112495
:10016000CF58DF4F2091D6003091D7008A819B81F4
:1001700028173907D9F5E881F98188859985099586
:10018000882359F08C819D812091D6003091D70031
:10019000820F931F9B838A8329C02F81822F90E037
:1001A000FC01A3E0EE0FFF1FAA95E1F7880F991F4E
:1001B000E80FF91FEF58FF4F8E8186838E8190E004
:1001C000FC0163E0EE0FFF1F6A95E1F7880F991FAE
:1001D000E80FF91FEF58FF4F2783E0917000EF5FA2
:1001E000E0937000F0E0ED53FF4F10831E81112368
:1001F00009F0B3CF82B78093E300DF91CF911F91D5
:100200000F9108951F93CF93DF938091B1008823BE
:1002100021F581E08093B100C4EED0E010E08C8144
:100220008823A9F0E881F9818A819B810995882337
:1002300071F41C82F894E0916E00EF5FE0936E0021
:10024000FF27E7FDF095E050FF4F108378941F5F84
:100250002596153021F71092B100DF91CF911F91B3
:1002600008951092C30021E02093C40042E040931F
:10027000C50033E03093C60094E09093C70085E05A
:100280008093C800809370001092000120930101B8
:1002900040930201309303019093040190936E0008
:1002A00083E681BF29BF8AE083BF789408951F92B7
:1002B0000F920FB60F9211242F933F934F935F939A
:1002C0006F937F938F939F93AF93BF93EF93FF931E
:1002D00033DF789497DFFF91EF91BF91AF919F91BA
:1002E0008F917F916F915F914F913F912F910F90DF
:1002F0000FBE0F901F901895DC011696ED91FC91A2
:100300001797808118969C9118978927808390E091
:1003100019968C911997882309F491E019969C936A
:1003200019971496ED91FC911597892F90E0880FFD
:10033000991FA80FB91F8D919C919583848381E0AB
:100340000895CF93DF93FC0190916F0097FD03C058
:10035000C0E0D0E017C09F5F90936F008AE09802E2
:10036000E0011124C453DF4FF983E8837B836A8360
:100370005F834E8328878CE791E0BF01AE016DDE7D
:100380009D838C83CE01DF91CF9108958091C2002F
:100390008823A1F08091CB00E82FF0E0EE54FF4FCE
:1003A00090811082943031F480E18093CB001092E0
:1003B000C20008959CB98F5F8093CB00089580910F
:1003C000CB00803179F4E091AD00F091AE00099559
:1003D000E8EDF0E0119280E0E03EF807D9F71092E6
:1003E000050105C0882319F4D1DF80E008958091CC
:1003F000C20008959CB19D3069F48091C2008823A9
:1004000049F481E08093C2008FED91E060E070E0FC
:1004100071DE1EC080910501883018F09F37C1F44D
:1004200002C09F3761F4882319F081508093050141
:10043000E0910501F0E0E852FF4F108208C0E82F7C
:10044000F0E0E852FF4F90838F5F809305019CB9E5
:1004500081E008958BEF92E09093AE008093AD0021
:1004600080E18093CB0010BC83E389B988ED8AB921
:1004700086E880BD08951F920F920FB60F92112447
:100480002F933F934F935F936F937F938F939F939C
:10049000AF93BF93EF93FF93ADDFFF91EF91BF91C8
:1004A000AF919F918F917F916F915F914F913F910C
:1004B0002F910F900FBE0F901F9018951F920F92C3
:1004C0000FB60F9211242F933F934F935F936F9327
:1004D0007F938F939F93AF93BF93EF93FF9356DFD9
:1004E000FF91EF91BF91AF919F918F917F916F910C
:1004F0005F914F913F912F910F900FBE0F901F90E2
:1005000018952091AF003091B0008091FD0090913E
:10051000FE002817390769F52091E1002223D9F060
:100520008BB391E089278BBB80ED97E09093FE0021
:100530008093FD008091E0008F5F8093E00028179A
:10054000A1F41092E00080E197E29093FE00809386
:10055000FD00D89A0AC08BB391E089278BBB88E84D
:1005600093E19093FE008093FD001092B0001092F2
:10057000AF008091AF009091B00001969093B000D1
:100580008093AF0081E0089588E893E19093FE00A6
:100590008093FD0081E892E060E070E0ABDD0895BB
:1005A00080E29EE495BD84BD80E496E099BD88BD5F
:1005B00082E28FBD82E18EBD08958AB38FEF8ABB40
:1005C00097B387BB94B384BB91B381BB96B186B913
:1005D0009BB38BBB46DE80E29EE495BD84BD80E488
:1005E00096E099BD88BD82E28FBD82E18EBDCCDFF1
:1005F00031DF8895FECF88ED90E060E670E045E061
:1006000050E08FD0009739F48EE093E09093AE00E5
:100610008093AD0008951092C2000895FF920F9349
:100620001F930DE00093B2001AE01093B30034E082
:10063000F32EF092B4008091FF008130F9F0823007
:10064000D9F1882309F04BC088ED90E066E670E0B0
:1006500043E050E066D0009721F481E08093FF00F2
:100660003EC088ED90E06AE670E043E050E059D08B
:10067000009799F582E08093FF002FC00093B200AD
:100680001093B3008091C9009091CA0064EB70E0B0
:100690004AE050E056D00093B8001093B900F092B1
:1006A000BA001092CB008BEF92E09093AE00809353
:1006B000AD001092FF0013C088ED90E014D090932D
:1006C000CA008093C90099BD88BD8BEF92E09093DA
:1006D000AE008093AD001092FF001092CB001F91EE
:1006E0000F91FF900895E82FF92F88279927E89414
:1006F00021912032E9F3293010F02E30C8F32B324B
:1007000039F02D3231F4689403C03ED0820F911D30
:10071000219120532A30C8F31EF4909581959F4F64
:100720000895E62FF72FA82FB92F4150504030F0F1
:100730008D910190801919F40020B9F7881B990B4D
:100740000895E62FF72F2E2F3F2FE8944230C4F064
:100750004532B4F44A3029F497FB1EF49095819504
:100760009F4F642F77272DD0805D8A330CF0895DF1
:100770008193862F972F0097A1F716F45DE251938E
:100780001082822F932F0BC0682F792F880F991F0B
:10079000880F991F860F971F880F991F0895A82FFC
:1007A000B92FE82FF92F672F71917723E1F732974F
:1007B00004C07C916D9370836291AE17BF07C8F33C
:1007C0000895AA1BBB1B51E107C0AA1FBB1FA61798
:1007D000B70710F0A61BB70B881F991F5A95A9F7EA
:0E07E00080959095BC01CD010895F894FFCF4F
:1007EE00736572766F006765740073657400FFFF42
:00000001FF
